S016000046696E616C50726F6A6563745F322E73726563BC
S11300000C9434000C9451000C9451000C94510045
S11300100C9451000C9451000C9451000C94510018
S11300200C9451000C9451000C9451000C94510008
S11300300C9451000C9451000C9451000C945100F8
S11300400C9451000C9451000C9451000C945100E8
S11300500C9451000C9451000C9451000C945100D8
S11300600C9451000C94510011241FBECFEFD8E022
S1130070DEBFCDBF11E0A0E0B1E0EAEEF5E002C0E2
S113008005900D92A43CB107D9F721E0A4ECB1E0AE
S113009001C01D92AE3CB207E1F70E9446010C94E8
S11300A0F3020C9400008AB18C608AB984B1806335
S11300B084B987B1807F87B988B18F6088B9089582
S11300C040E050E059C08BB18C608BB985B180633E
S11300D085B94130510581F024F44115510541F0B1
S11300E016C04230510561F04330510569F00FC02C
S11300F08BB18B7F8BB90BC08BB1877F8BB907C05A
S113010085B18F7E85B903C085B18F7D85B981EEB8
S113011094E00197F1F700C0000020E030E027C030
S113012086B190E0022E02C0959587950A94E2F775
S113013080FD1BC086B190E0022E02C09595879584
S11301400A94E2F780FFF6CF81EE94E00197F1F78D
S113015000C00000440F551F440F551F40505F4F0F
S1130160FA01E20FF31F808108952F5F3F4F24307F
S11301703105B4F24F5F5F4F443051050CF4A3CF07
S113018080E008959BB19F70807F892B8BB985B1E6
S1130190886085B985E08A95F1F7000085B1877F8D
S11301A085B98FE193E00197F1F700C0000008954D
S11301B0CF93C82F0E94C2008C2F8295807F0E940B
S11301C0C200CF91089595B19E7F95B90E94D80041
S11301D08FE39FE10197F1F700C00000089595B106
S11301E0916095B90E94D8008FE39FE10197F1F7E0
S11301F000C00000089584B18D6084B980EF8AB98D
S113020085B18B7F85B98FE59AEE0197F1F700C030
S1130210000083E30E94E30082E30E94E30088E29B
S11302200E94E3008CE00E94E30086E00E94E30069
S113023081E00E94E3000895CF93DF93EC010CC0AA
S113024021960E94EF002FEF86E791E02150804035
S11302509040E1F700C0000088818111F1CFDF9167
S1130260CF91089581E00E94E3008FE39FE101971D
S1130270F1F700C000000895882319F0813029F4B3
S1130280605C862F80680E94E30008950E94FB0052
S11302900E9453000E94BA020E94DC020E943201B2
S11302A060E080E00E943C0184E191E00E941C0136
S11302B060E081E00E943C0185E291E00E941C0123
S11302C02FEF83ED90E3215080409040E1F700C090
S11302D000000E94320160E080E00E943C0184E35F
S11302E091E00E941C0160E081E00E943C0183E4F3
S11302F091E00E941C010E9460008093CD019FEC5C
S1130300980F9230C0F7813309F47BC0823309F42B
S113031085C0DFC00E94320160E080E00E943C01A1
S113032080E591E00E941C0160E081E00E943C01B4
S113033086E591E00E941C01C0E00EC00E946000AE
S11303408093CD018823D1F3EC2FF0E0E853FE4FE6
S113035080830E94EF00CF5FC43080F31092CC0101
S113036020E0C1E011C0822F90E0FC01E853FE4F71
S113037030814091110150911201FA01E80FF91FE7
S113038080813813C0E02F5F253068F30E9432016A
S1130390CC2381F00E94320164E080E00E943C01A1
S11303A081E691E00E941C010E94D50281E08093C5
S11303B0C60125C0809113018150809313010E94CE
S11303C0320160E080E00E943C0189E691E00E94F5
S11303D01C0160E081E00E943C0188E791E00E94FA
S11303E01C0180911301805D0E94EF002FEF8FE0CC
S11303F097E2215080409040E1F700C00000DF5FA9
S113040001C0D0E0D33008F064C08091C6018111EE
S113041060C08091130181117DCF5BC081E0809326
S113042010010E94320163E080E00E943C0188E8F0
S113043091E00E941C0149C00E94EC028093C70114
S11304408C34F1F0853509F040C00E94320164E03B
S113045080E00E943C0181E691E00E941C010E9420
S1130460D5022FEF83ED90E3215080409040E1F7D7
S113047000C000001092C70181E08093C40125C030
S11304808091C4018823F9F00E94320164E080E085
S11304900E943C0183E991E00E941C010E94CE026B
S11304A01092C7011092100181E08093C50110924F
S11304B0C4012FEF83ED90E3215080409040E1F799
S11304C000C0000002C01092C70180911001811188
S11304D0B3CF8091C5018111E1CE809113018823AE
S11304E049F160E081E00E943C018CE991E00E94C6
S11304F01C010E9460008093CD018A32D1F70E94D2
S1130500320164E080E00E943C0183E991E00E94B2
S11305101C010E94CE022FEF83ED90E32150804016
S11305209040E1F700C000001092C60183E0809380
S11305301301B4CE8111B2CE0E94320164E080E096
S11305400E943C0183E991E00E941C0160E081E08B
S11305500E943C018CEA91E00E941C010E94600010
S11305608093CD018332D1F71092C60183E080934A
S1130570130194CE84B1826084B9109285001092E4
S1130580840087E893E1909387008093860082E853
S1130590809380008BE180938100089589EF90E03F
S11305A09093890080938800089586E791E0909362
S11305B0890080938800089584B1806284B987E6B5
S11305C090E09093C5008093C40088E18093C100BB
S11305D086E08093C20008958091C0008823E4F7E8
S10D05E08091C6000895F894FFCF3F
S11305EA3738394134353642313233432A30234499
S11305FA01BE010357656C636F6D652043686F6FB5
S113060A73652061004D6F646520746F20556E6CAC
S113061A6F636B00312E204E6F726D616C204D6FCB
S113062A646500322E2057494649204D6F6465009F
S113063A456E7465720050617373776F72643A2001
S113064A0057656C636F6D6500496E636F727265FE
S113065A6374205061737300417474656D707473AC
S113066A204C6566743A200057616974696E672E76
S113067A2E2E004C4F434B45442021005072657383
S113068A73202A20746F204C6F636B0057696C6463
S113069A20427574746F6E204F6E6C79210031326A
S10706AA33340000E1
S9030000FC
