:100000000C9434000C9451000C9451000C94510049
:100010000C9451000C9451000C9451000C9451001C
:100020000C9451000C9451000C9451000C9451000C
:100030000C9451000C9451000C9451000C945100FC
:100040000C9451000C9451000C9451000C945100EC
:100050000C9451000C9451000C9451000C945100DC
:100060000C9451000C94510011241FBECFEFD8E026
:10007000DEBFCDBF11E0A0E0B1E0E6E6F2E002C0F5
:1000800005900D92A031B107D9F721E0A0E1B1E0D0
:1000900001C01D92A131B207E1F70E941C010C942E
:1000A00031010C9400008AB18C608AB984B18063FC
:1000B00084B987B1807F87B988B18F6088B9089586
:1000C00040E050E059C08BB18C608BB985B1806342
:1000D00085B94130510581F024F44115510541F0B5
:1000E00016C04230510561F04330510569F00FC030
:1000F0008BB18B7F8BB90BC08BB1877F8BB907C05E
:1001000085B18F7E85B903C085B18F7D85B981EEBC
:1001100094E00197F1F700C0000020E030E027C034
:1001200086B190E0022E02C0959587950A94E2F779
:1001300080FD1BC086B190E0022E02C09595879588
:100140000A94E2F780FFF6CF81EE94E00197F1F791
:1001500000C00000440F551F440F551F40505F4F13
:10016000FA01E20FF31F808108952F5F3F4F243083
:100170003105B4F24F5F5F4F443051050CF4A3CF0B
:1001800080E008959BB19F70807F892B8BB985B1EA
:10019000886085B985E08A95F1F7000085B1877F91
:1001A00085B98FE193E00197F1F700C00000089551
:1001B000CF93C82F0E94C2008C2F8295807F0E940F
:1001C000C200CF91089595B19E7F95B90E94D80045
:1001D0008FE39FE10197F1F700C00000089595B10A
:1001E000916095B90E94D8008FE39FE10197F1F7E4
:1001F00000C00000089584B18D6084B980EF8AB991
:1002000085B18B7F85B98FE59AEE0197F1F700C034
:10021000000083E30E94E30082E30E94E30088E29F
:100220000E94E3008CE00E94E30086E00E94E3006D
:1002300081E00E94E30008950E94FB000E945300A9
:100240000E9460008093100181110E94EF002FEF47
:1002500080E792E0215080409040E1F700C000002C
:06026000EFCFF894FFCF80
:100266003738392F343536783132332D43303D2BFC
:00000001FF
